{
  "contractName": "ERC721Enumerable",
  "abi": [
    {
      "anonymous": false,
      "inputs": [
        {
          "indexed": true,
          "internalType": "address",
          "name": "from",
          "type": "address"
        },
        {
          "indexed": true,
          "internalType": "address",
          "name": "to",
          "type": "address"
        },
        {
          "indexed": true,
          "internalType": "uint256",
          "name": "tokenId",
          "type": "uint256"
        }
      ],
      "name": "Transfer",
      "type": "event"
    },
    {
      "inputs": [
        {
          "internalType": "address",
          "name": "_owner",
          "type": "address"
        }
      ],
      "name": "balanceOf",
      "outputs": [
        {
          "internalType": "uint256",
          "name": "",
          "type": "uint256"
        }
      ],
      "stateMutability": "view",
      "type": "function"
    },
    {
      "inputs": [
        {
          "internalType": "uint256",
          "name": "_tokenId",
          "type": "uint256"
        }
      ],
      "name": "ownerOf",
      "outputs": [
        {
          "internalType": "address",
          "name": "",
          "type": "address"
        }
      ],
      "stateMutability": "view",
      "type": "function"
    },
    {
      "inputs": [
        {
          "internalType": "uint256",
          "name": "index",
          "type": "uint256"
        }
      ],
      "name": "tokenByIndex",
      "outputs": [
        {
          "internalType": "uint256",
          "name": "",
          "type": "uint256"
        }
      ],
      "stateMutability": "view",
      "type": "function"
    },
    {
      "inputs": [
        {
          "internalType": "address",
          "name": "owner",
          "type": "address"
        },
        {
          "internalType": "uint256",
          "name": "index",
          "type": "uint256"
        }
      ],
      "name": "tokenOfOwnerByIndex",
      "outputs": [
        {
          "internalType": "uint256",
          "name": "",
          "type": "uint256"
        }
      ],
      "stateMutability": "view",
      "type": "function"
    },
    {
      "inputs": [],
      "name": "totalSupply",
      "outputs": [
        {
          "internalType": "uint256",
          "name": "",
          "type": "uint256"
        }
      ],
      "stateMutability": "view",
      "type": "function"
    }
  ],
  "bytecode": "0x608060405234801561001057600080fd5b5061077c806100206000396000f3fe608060405234801561001057600080fd5b50600436106100575760003560e01c806318160ddd1461005c5780632f745c591461007a5780634f6ccce7146100aa5780636352211e146100da57806370a082311461010a575b600080fd5b61006461013a565b60405161007191906103e8565b60405180910390f35b610094600480360381019061008f9190610492565b610147565b6040516100a191906103e8565b60405180910390f35b6100c460048036038101906100bf91906104d2565b6101f7565b6040516100d191906103e8565b60405180910390f35b6100f460048036038101906100ef91906104d2565b610268565b604051610101919061050e565b60405180910390f35b610124600480360381019061011f9190610529565b610318565b60405161013191906103e8565b60405180910390f35b6000600280549050905090565b600061015283610318565b8210610193576040517f08c379a000000000000000000000000000000000000000000000000000000000815260040161018a906105b3565b60405180910390fd5b600460008473ffffffffffffffffffffffffffffffffffffffff1673ffffffffffffffffffffffffffffffffffffffff16815260200190815260200160002082815481106101e4576101e36105d3565b5b9060005260206000200154905092915050565b600061020161013a565b8210610242576040517f08c379a00000000000000000000000000000000000000000000000000000000081526004016102399061064e565b60405180910390fd5b60028281548110610256576102556105d3565b5b90600052602060002001549050919050565b60008060008084815260200190815260200160002060009054906101000a900473ffffffffffffffffffffffffffffffffffffffff169050600073ffffffffffffffffffffffffffffffffffffffff168173ffffffffffffffffffffffffffffffffffffffff160361030f576040517f08c379a0000000000000000000000000000000000000000000000000000000008152600401610306906106ba565b60405180910390fd5b80915050919050565b60008073ffffffffffffffffffffffffffffffffffffffff168273ffffffffffffffffffffffffffffffffffffffff1603610388576040517f08c379a000000000000000000000000000000000000000000000000000000000815260040161037f90610726565b60405180910390fd5b600160008373ffffffffffffffffffffffffffffffffffffffff1673ffffffffffffffffffffffffffffffffffffffff168152602001908152602001600020549050919050565b6000819050919050565b6103e2816103cf565b82525050565b60006020820190506103fd60008301846103d9565b92915050565b600080fd5b600073ffffffffffffffffffffffffffffffffffffffff82169050919050565b600061043382610408565b9050919050565b61044381610428565b811461044e57600080fd5b50565b6000813590506104608161043a565b92915050565b61046f816103cf565b811461047a57600080fd5b50565b60008135905061048c81610466565b92915050565b600080604083850312156104a9576104a8610403565b5b60006104b785828601610451565b92505060206104c88582860161047d565b9150509250929050565b6000602082840312156104e8576104e7610403565b5b60006104f68482850161047d565b91505092915050565b61050881610428565b82525050565b600060208201905061052360008301846104ff565b92915050565b60006020828403121561053f5761053e610403565b5b600061054d84828501610451565b91505092915050565b600082825260208201905092915050565b7f4f776e657220696e646578206973206f7574206f6620626f756e647300000000600082015250565b600061059d601c83610556565b91506105a882610567565b602082019050919050565b600060208201905081810360008301526105cc81610590565b9050919050565b7f4e487b7100000000000000000000000000000000000000000000000000000000600052603260045260246000fd5b7f476c6f62616c20696e646578206973206f7574206f6620626f756e6473000000600082015250565b6000610638601d83610556565b915061064382610602565b602082019050919050565b600060208201905081810360008301526106678161062b565b9050919050565b7f6e6f206f776e6572000000000000000000000000000000000000000000000000600082015250565b60006106a4600883610556565b91506106af8261066e565b602082019050919050565b600060208201905081810360008301526106d381610697565b9050919050565b7f57726f6e67206164647265737300000000000000000000000000000000000000600082015250565b6000610710600d83610556565b915061071b826106da565b602082019050919050565b6000602082019050818103600083015261073f81610703565b905091905056fea2646970667358221220e9964684361c622096772d7d1476a2824bad9c2e95981d80389a302253d3f00764736f6c634300080d0033",
  "immutableReferences": {},
  "source": "// SPDX-License-Identifier: MIT\npragma solidity ^0.8.0;\n\nimport \"./ERC721.sol\";\n\n/// @title ERC-721 Non-Fungible Token Standard, optional enumeration extension\n/// @dev See https://eips.ethereum.org/EIPS/eip-721\n///  Note: the ERC-165 identifier for this interface is 0x780e9d63.\n/* is ERC721 */\ncontract ERC721Enumerable is ERC721 {\n    uint256[] private _allTokens;\n\n    // mapping from tokenId to all token position\n    mapping(uint256 => uint256) private _allTokensIndex;\n\n    // mapping of owner to list all owner token ids\n    mapping(address => uint256[]) private _ownedTokens;\n\n    // mapping from token ID to index of owner token list\n    mapping(uint256 => uint256) private _ownedTokensIndex;\n\n    function _mint(address to, uint256 tokenId) internal override(ERC721) {\n        super._mint(to, tokenId);\n\n        // 1 add tokens to the owner\n        // 2 add tokens to our token supply\n\n        _addTokensToAllEnumeration(tokenId);\n        _addTokensToOwnerEnumeration(to, tokenId);\n    }\n\n    // add tokens to all tokens array and set the position of the tokens indexes\n    function _addTokensToAllEnumeration(uint256 tokenID) private {\n        _allTokensIndex[tokenID] = _allTokens.length;\n        _allTokens.push(tokenID);\n    }\n\n    function _addTokensToOwnerEnumeration(address to, uint256 tokenId) private {\n        // 1. add address and token id to _ownedTokens\n        // 2. _ownedTokensIndex tokenid set to the address of owned tokens position\n        // we want to execute for minitng\n        _ownedTokensIndex[tokenId] = _ownedTokens[to].length;\n        _ownedTokens[to].push(tokenId);\n    }\n\n    // returns token by index\n    function tokenByIndex(uint256 index) public view returns (uint256) {\n        // make sure index is within in the range of existance\n        require(index < totalSupply(), \"Global index is out of bounds\");\n\n        return _allTokens[index];\n    }\n\n    // returns token owner by index\n    function tokenOfOwnerByIndex(address owner, uint256 index)\n        public\n        view\n        returns (uint256)\n    {\n        require(index < balanceOf(owner), \"Owner index is out of bounds\");\n\n        return _ownedTokens[owner][index];\n    }\n\n    /// @notice Count NFTs tracked by this contract\n    /// @return A count of valid NFTs tracked by this contract, where each one of\n    ///  them has an assigned and queryable owner not equal to the zero address\n    function totalSupply() public view returns (uint256) {\n        return _allTokens.length;\n    }\n}\n",
  "sourcePath": "/Users/Jayu/Sites/NFT/nft-marketplace-starter-kit/src/contracts/ERC721Enumerable.sol",
  "compiler": {
    "name": "solc",
    "version": "0.8.13+commit.abaa5c0e.Emscripten.clang"
  },
  "schemaVersion": "3.4.5",
  "updatedAt": "2022-03-23T06:38:25.626Z",
  "devdoc": {
    "details": "See https://eips.ethereum.org/EIPS/eip-721  Note: the ERC-165 identifier for this interface is 0x780e9d63.",
    "kind": "dev",
    "methods": {
      "totalSupply()": {
        "returns": {
          "_0": "A count of valid NFTs tracked by this contract, where each one of  them has an assigned and queryable owner not equal to the zero address"
        }
      }
    },
    "title": "ERC-721 Non-Fungible Token Standard, optional enumeration extension",
    "version": 1
  },
  "userdoc": {
    "kind": "user",
    "methods": {
      "totalSupply()": {
        "notice": "Count NFTs tracked by this contract"
      }
    },
    "version": 1
  }
}