{
  "contractName": "ERC721",
  "abi": [
    {
      "anonymous": false,
      "inputs": [
        {
          "indexed": true,
          "internalType": "address",
          "name": "from",
          "type": "address"
        },
        {
          "indexed": true,
          "internalType": "address",
          "name": "to",
          "type": "address"
        },
        {
          "indexed": true,
          "internalType": "uint256",
          "name": "tokenId",
          "type": "uint256"
        }
      ],
      "name": "Transfer",
      "type": "event"
    },
    {
      "inputs": [
        {
          "internalType": "address",
          "name": "_owner",
          "type": "address"
        }
      ],
      "name": "balanceOf",
      "outputs": [
        {
          "internalType": "uint256",
          "name": "",
          "type": "uint256"
        }
      ],
      "stateMutability": "view",
      "type": "function"
    },
    {
      "inputs": [
        {
          "internalType": "uint256",
          "name": "_tokenId",
          "type": "uint256"
        }
      ],
      "name": "ownerOf",
      "outputs": [
        {
          "internalType": "address",
          "name": "",
          "type": "address"
        }
      ],
      "stateMutability": "view",
      "type": "function"
    },
    {
      "inputs": [
        {
          "internalType": "address",
          "name": "_from",
          "type": "address"
        },
        {
          "internalType": "address",
          "name": "_to",
          "type": "address"
        },
        {
          "internalType": "uint256",
          "name": "_tokenId",
          "type": "uint256"
        }
      ],
      "name": "transferFrom",
      "outputs": [],
      "stateMutability": "payable",
      "type": "function"
    }
  ],
  "bytecode": "0x608060405234801561001057600080fd5b506109f7806100206000396000f3fe6080604052600436106100345760003560e01c806323b872dd146100395780636352211e1461005557806370a0823114610092575b600080fd5b610053600480360381019061004e91906105da565b6100cf565b005b34801561006157600080fd5b5061007c6004803603810190610077919061062d565b6100df565b6040516100899190610669565b60405180910390f35b34801561009e57600080fd5b506100b960048036038101906100b49190610684565b61018f565b6040516100c691906106c0565b60405180910390f35b6100da838383610246565b505050565b60008060008084815260200190815260200160002060009054906101000a900473ffffffffffffffffffffffffffffffffffffffff169050600073ffffffffffffffffffffffffffffffffffffffff168173ffffffffffffffffffffffffffffffffffffffff1603610186576040517f08c379a000000000000000000000000000000000000000000000000000000000815260040161017d90610738565b60405180910390fd5b80915050919050565b60008073ffffffffffffffffffffffffffffffffffffffff168273ffffffffffffffffffffffffffffffffffffffff16036101ff576040517f08c379a00000000000000000000000000000000000000000000000000000000081526004016101f6906107a4565b60405180910390fd5b600160008373ffffffffffffffffffffffffffffffffffffffff1673ffffffffffffffffffffffffffffffffffffffff168152602001908152602001600020549050919050565b600073ffffffffffffffffffffffffffffffffffffffff168273ffffffffffffffffffffffffffffffffffffffff16036102b5576040517f08c379a00000000000000000000000000000000000000000000000000000000081526004016102ac90610810565b60405180910390fd5b6102be816100df565b73ffffffffffffffffffffffffffffffffffffffff168373ffffffffffffffffffffffffffffffffffffffff161461032b576040517f08c379a00000000000000000000000000000000000000000000000000000000081526004016103229061087c565b60405180910390fd5b610334816104d0565b610373576040517f08c379a000000000000000000000000000000000000000000000000000000000815260040161036a906108e8565b60405180910390fd5b8160008083815260200190815260200160002060006101000a81548173ffffffffffffffffffffffffffffffffffffffff021916908373ffffffffffffffffffffffffffffffffffffffff16021790555060018060008473ffffffffffffffffffffffffffffffffffffffff1673ffffffffffffffffffffffffffffffffffffffff16815260200190815260200160002060008282546104139190610937565b9250508190555060018060008573ffffffffffffffffffffffffffffffffffffffff1673ffffffffffffffffffffffffffffffffffffffff1681526020019081526020016000206000828254610469919061098d565b92505081905550808273ffffffffffffffffffffffffffffffffffffffff168473ffffffffffffffffffffffffffffffffffffffff167fddf252ad1be2c89b69c2b068fc378daa952ba7f163c4a11628f55a4df523b3ef60405160405180910390a4505050565b60008060008084815260200190815260200160002060009054906101000a900473ffffffffffffffffffffffffffffffffffffffff169050600073ffffffffffffffffffffffffffffffffffffffff168173ffffffffffffffffffffffffffffffffffffffff161415915050919050565b600080fd5b600073ffffffffffffffffffffffffffffffffffffffff82169050919050565b600061057182610546565b9050919050565b61058181610566565b811461058c57600080fd5b50565b60008135905061059e81610578565b92915050565b6000819050919050565b6105b7816105a4565b81146105c257600080fd5b50565b6000813590506105d4816105ae565b92915050565b6000806000606084860312156105f3576105f2610541565b5b60006106018682870161058f565b93505060206106128682870161058f565b9250506040610623868287016105c5565b9150509250925092565b60006020828403121561064357610642610541565b5b6000610651848285016105c5565b91505092915050565b61066381610566565b82525050565b600060208201905061067e600083018461065a565b92915050565b60006020828403121561069a57610699610541565b5b60006106a88482850161058f565b91505092915050565b6106ba816105a4565b82525050565b60006020820190506106d560008301846106b1565b92915050565b600082825260208201905092915050565b7f6e6f206f776e6572000000000000000000000000000000000000000000000000600082015250565b60006107226008836106db565b915061072d826106ec565b602082019050919050565b6000602082019050818103600083015261075181610715565b9050919050565b7f57726f6e67206164647265737300000000000000000000000000000000000000600082015250565b600061078e600d836106db565b915061079982610758565b602082019050919050565b600060208201905081810360008301526107bd81610781565b9050919050565b7f4572726f723a20496e76616c696420546f206164647265737300000000000000600082015250565b60006107fa6019836106db565b9150610805826107c4565b602082019050919050565b60006020820190508181036000830152610829816107ed565b9050919050565b7f4572726f723a20596f7520646f776e206f776e2074686520546f6b656e000000600082015250565b6000610866601d836106db565b915061087182610830565b602082019050919050565b6000602082019050818103600083015261089581610859565b9050919050565b7f4572726f723a20546f6b656e20446f65736e7420657869737473000000000000600082015250565b60006108d2601a836106db565b91506108dd8261089c565b602082019050919050565b60006020820190508181036000830152610901816108c5565b9050919050565b7f4e487b7100000000000000000000000000000000000000000000000000000000600052601160045260246000fd5b6000610942826105a4565b915061094d836105a4565b9250827fffffffffffffffffffffffffffffffffffffffffffffffffffffffffffffffff0382111561098257610981610908565b5b828201905092915050565b6000610998826105a4565b91506109a3836105a4565b9250828210156109b6576109b5610908565b5b82820390509291505056fea264697066735822122063f3b44503863828e5255c3f3f85f8430f462517822959c0ec45c5220764360c64736f6c634300080d0033",
  "immutableReferences": {},
  "source": "// SPDX-License-Identifier: MIT\npragma solidity ^0.8.0;\n\n/*\n    1. Keep track of the address who mints the NFT \n    2. Keep track of Token id \n    3. keep track of token owners to token ids\n    4. keep track of how many tokens owner has \n    5. emit trnasfer logs \n*/\ncontract ERC721 {\n    event Transfer(\n        address indexed from,\n        address indexed to,\n        uint256 indexed tokenId\n    );\n\n    // mapping owner to token ids\n    mapping(uint256 => address) private _tokenOwner;\n\n    // mapping number of tokens held by address\n    mapping(address => uint256) private _OwnedTokensCount;\n\n    // mapping from token id to approved addresses\n    mapping(uint256 => address) private _tokenApprovals;\n\n    function balanceOf(address _owner) public view returns (uint256) {\n        require(_owner != address(0), \"Wrong address\");\n\n        return _OwnedTokensCount[_owner];\n    }\n\n    function ownerOf(uint256 _tokenId) public view returns (address) {\n        address owner = _tokenOwner[_tokenId];\n        require(owner != address(0), \"no owner\");\n        return owner;\n    }\n\n    function _exists(uint256 tokenId) internal view returns (bool) {\n        address owner = _tokenOwner[tokenId];\n        return owner != address(0);\n    }\n\n    function _mint(address to, uint256 tokenId) internal virtual {\n        // make sure its a valid address\n        require(to != address(0), \"ERC721 minting to 0 address\");\n\n        // make sure the token is not minted already\n        require(!_exists(tokenId), \"Token already exists\");\n\n        // add a new address to tokenid to mint\n        _tokenOwner[tokenId] = to;\n        _OwnedTokensCount[to] += 1;\n\n        emit Transfer(address(0), to, tokenId);\n    }\n\n    /// @notice Transfer ownership of an NFT -- THE CALLER IS RESPONSIBLE\n    ///  TO CONFIRM THAT `_to` IS CAPABLE OF RECEIVING NFTS OR ELSE\n    ///  THEY MAY BE PERMANENTLY LOST\n    /// @dev Throws unless `msg.sender` is the current owner, an authorized\n    ///  operator, or the approved address for this NFT. Throws if `_from` is\n    ///  not the current owner. Throws if `_to` is the zero address. Throws if\n    ///  `_tokenId` is not a valid NFT.\n    /// @param _from The current owner of the NFT\n    /// @param _to The new owner\n    /// @param _tokenId The NFT to transfer\n    function _transferFrom(\n        address _from,\n        address _to,\n        uint256 _tokenId\n    ) internal {\n        //1. assign the token id to to the receiver address\n        //2. update balance of the address \"_from\"\n        //3. update balance of the address \"_to\"\n        //4. Add the safe functionality\n        // safety\n        // check if the receiving address is non zero\n        // check if the _from address actually owns the token\n\n        // safety checks\n        require(_to != address(0), \"Error: Invalid To address\");\n        require(_from == ownerOf(_tokenId), \"Error: You down own the Token\");\n        require(_exists(_tokenId), \"Error: Token Doesnt exists\");\n\n        // transfer token\n        _tokenOwner[_tokenId] = _to;\n        _OwnedTokensCount[_to] += 1;\n\n        // update token\n        _OwnedTokensCount[_from] -= 1;\n\n        emit Transfer(_from, _to, _tokenId);\n    }\n\n    function transferFrom(\n        address _from,\n        address _to,\n        uint256 _tokenId\n    ) public payable {\n        _transferFrom(_from, _to, _tokenId);\n    }\n    // function that will clear NFT\n}\n",
  "sourcePath": "/Users/Jayu/Sites/NFT/nft-marketplace-starter-kit/src/contracts/ERC721.sol",
  "compiler": {
    "name": "solc",
    "version": "0.8.13+commit.abaa5c0e.Emscripten.clang"
  },
  "schemaVersion": "3.4.5",
  "updatedAt": "2022-03-23T07:23:39.125Z",
  "devdoc": {
    "kind": "dev",
    "methods": {},
    "version": 1
  },
  "userdoc": {
    "kind": "user",
    "methods": {},
    "version": 1
  }
}