{
  "contractName": "RareStampz",
  "abi": [
    {
      "inputs": [],
      "stateMutability": "nonpayable",
      "type": "constructor"
    },
    {
      "anonymous": false,
      "inputs": [
        {
          "indexed": true,
          "internalType": "address",
          "name": "owner",
          "type": "address"
        },
        {
          "indexed": true,
          "internalType": "address",
          "name": "approved",
          "type": "address"
        },
        {
          "indexed": true,
          "internalType": "uint256",
          "name": "tokenId",
          "type": "uint256"
        }
      ],
      "name": "Approval",
      "type": "event"
    },
    {
      "anonymous": false,
      "inputs": [
        {
          "indexed": true,
          "internalType": "address",
          "name": "from",
          "type": "address"
        },
        {
          "indexed": true,
          "internalType": "address",
          "name": "to",
          "type": "address"
        },
        {
          "indexed": true,
          "internalType": "uint256",
          "name": "tokenId",
          "type": "uint256"
        }
      ],
      "name": "Transfer",
      "type": "event"
    },
    {
      "inputs": [
        {
          "internalType": "address",
          "name": "_to",
          "type": "address"
        },
        {
          "internalType": "uint256",
          "name": "_tokenId",
          "type": "uint256"
        }
      ],
      "name": "approve",
      "outputs": [],
      "stateMutability": "nonpayable",
      "type": "function"
    },
    {
      "inputs": [
        {
          "internalType": "address",
          "name": "_owner",
          "type": "address"
        }
      ],
      "name": "balanceOf",
      "outputs": [
        {
          "internalType": "uint256",
          "name": "",
          "type": "uint256"
        }
      ],
      "stateMutability": "view",
      "type": "function",
      "constant": true
    },
    {
      "inputs": [],
      "name": "name",
      "outputs": [
        {
          "internalType": "string",
          "name": "",
          "type": "string"
        }
      ],
      "stateMutability": "view",
      "type": "function",
      "constant": true
    },
    {
      "inputs": [
        {
          "internalType": "uint256",
          "name": "_tokenId",
          "type": "uint256"
        }
      ],
      "name": "ownerOf",
      "outputs": [
        {
          "internalType": "address",
          "name": "",
          "type": "address"
        }
      ],
      "stateMutability": "view",
      "type": "function",
      "constant": true
    },
    {
      "inputs": [
        {
          "internalType": "uint256",
          "name": "",
          "type": "uint256"
        }
      ],
      "name": "stamps",
      "outputs": [
        {
          "internalType": "string",
          "name": "",
          "type": "string"
        }
      ],
      "stateMutability": "view",
      "type": "function",
      "constant": true
    },
    {
      "inputs": [
        {
          "internalType": "bytes4",
          "name": "interfaceID",
          "type": "bytes4"
        }
      ],
      "name": "supportsInterface",
      "outputs": [
        {
          "internalType": "bool",
          "name": "",
          "type": "bool"
        }
      ],
      "stateMutability": "view",
      "type": "function",
      "constant": true
    },
    {
      "inputs": [],
      "name": "symbol",
      "outputs": [
        {
          "internalType": "string",
          "name": "",
          "type": "string"
        }
      ],
      "stateMutability": "view",
      "type": "function",
      "constant": true
    },
    {
      "inputs": [
        {
          "internalType": "uint256",
          "name": "index",
          "type": "uint256"
        }
      ],
      "name": "tokenByIndex",
      "outputs": [
        {
          "internalType": "uint256",
          "name": "",
          "type": "uint256"
        }
      ],
      "stateMutability": "view",
      "type": "function",
      "constant": true
    },
    {
      "inputs": [
        {
          "internalType": "address",
          "name": "owner",
          "type": "address"
        },
        {
          "internalType": "uint256",
          "name": "index",
          "type": "uint256"
        }
      ],
      "name": "tokenOfOwnerByIndex",
      "outputs": [
        {
          "internalType": "uint256",
          "name": "",
          "type": "uint256"
        }
      ],
      "stateMutability": "view",
      "type": "function",
      "constant": true
    },
    {
      "inputs": [],
      "name": "totalSupply",
      "outputs": [
        {
          "internalType": "uint256",
          "name": "",
          "type": "uint256"
        }
      ],
      "stateMutability": "view",
      "type": "function",
      "constant": true
    },
    {
      "inputs": [
        {
          "internalType": "address",
          "name": "_from",
          "type": "address"
        },
        {
          "internalType": "address",
          "name": "_to",
          "type": "address"
        },
        {
          "internalType": "uint256",
          "name": "_tokenId",
          "type": "uint256"
        }
      ],
      "name": "transferFrom",
      "outputs": [],
      "stateMutability": "payable",
      "type": "function",
      "payable": true
    },
    {
      "inputs": [
        {
          "internalType": "string",
          "name": "_stamp",
          "type": "string"
        }
      ],
      "name": "mint",
      "outputs": [],
      "stateMutability": "nonpayable",
      "type": "function"
    }
  ],
  "bytecode": "0x60806040523480156200001157600080fd5b506040518060400160405280600a81526020017f526172655374616d707a000000000000000000000000000000000000000000008152506040518060400160405280600781526020017f525354414d505a000000000000000000000000000000000000000000000000008152508181620000b17f01ffc9a7a5cef8baa21ed3c5c0d7e23accb804b619e9333b597f47a0d84076e26200022a60201b60201c565b8160019080519060200190620000c992919062000301565b508060029080519060200190620000e292919062000301565b50620001367f13b182f4c0e5b2efbac0efe6cf6d756c8b89f4b79c5707a043ed9ea740574ee97f7feaf19471f34a12a7eaf32d5f3090aa2260ea8624dc8a138e74e0bf0f623076186200022a60201b60201c565b5050620001ad7f22c82707ba960a14c7592ffb6b8cfaa073fed0048a84cc7fa41f6b5bd8e7f2e47f3a6eb71757dfc6e784c1459d26270140c2c147d95ca985c80026fc5301c3eca17f8a7e378434598edc36d108689a030cbc9d7d465de4f74c71bae1028eed6a881b18186200022a60201b60201c565b620002227f8230223f691b981717299fae9549350a0d894555723531f02108b1f522c1a7977f6da5e1284143cdd2d15038a59bde3be031250f00291d64494c12d967b3a4e0c37fc53637662700e6c65104059db8bba34439e0c32483ab7c34e3ccae52c739549518186200022a60201b60201c565b505062000498565b63ffffffff60e01b817bffffffffffffffffffffffffffffffffffffffffffffffffffffffff19160362000295576040517f08c379a00000000000000000000000000000000000000000000000000000000081526004016200028c9062000412565b60405180910390fd5b6001600080837bffffffffffffffffffffffffffffffffffffffffffffffffffffffff19167bffffffffffffffffffffffffffffffffffffffffffffffffffffffff1916815260200190815260200160002060006101000a81548160ff02191690831515021790555050565b8280546200030f9062000463565b90600052602060002090601f0160209004810192826200033357600085556200037f565b82601f106200034e57805160ff19168380011785556200037f565b828001600101855582156200037f579182015b828111156200037e57825182559160200191906001019062000361565b5b5090506200038e919062000392565b5090565b5b80821115620003ad57600081600090555060010162000393565b5090565b600082825260208201905092915050565b7f496e76616c696420496e74657266616365000000000000000000000000000000600082015250565b6000620003fa601183620003b1565b91506200040782620003c2565b602082019050919050565b600060208201905081810360008301526200042d81620003eb565b9050919050565b7f4e487b7100000000000000000000000000000000000000000000000000000000600052602260045260246000fd5b600060028204905060018216806200047c57607f821691505b60208210810362000492576200049162000434565b5b50919050565b611e9880620004a86000396000f3fe6080604052600436106100a75760003560e01c80634f6ccce7116100645780634f6ccce7146101c15780636352211e146101fe57806370a082311461023b57806395d89b4114610278578063ccd68f3b146102a3578063d85d3d27146102e0576100a7565b806301ffc9a7146100ac57806306fdde03146100e9578063095ea7b31461011457806318160ddd1461013d57806323b872dd146101685780632f745c5914610184575b600080fd5b3480156100b857600080fd5b506100d360048036038101906100ce9190611222565b610309565b6040516100e0919061126a565b60405180910390f35b3480156100f557600080fd5b506100fe610370565b60405161010b919061131e565b60405180910390f35b34801561012057600080fd5b5061013b600480360381019061013691906113d4565b610402565b005b34801561014957600080fd5b5061015261059d565b60405161015f9190611423565b60405180910390f35b610182600480360381019061017d919061143e565b6105aa565b005b34801561019057600080fd5b506101ab60048036038101906101a691906113d4565b610603565b6040516101b89190611423565b60405180910390f35b3480156101cd57600080fd5b506101e860048036038101906101e39190611491565b6106b3565b6040516101f59190611423565b60405180910390f35b34801561020a57600080fd5b5061022560048036038101906102209190611491565b610724565b60405161023291906114cd565b60405180910390f35b34801561024757600080fd5b50610262600480360381019061025d91906114e8565b6107d5565b60405161026f9190611423565b60405180910390f35b34801561028457600080fd5b5061028d61088c565b60405161029a919061131e565b60405180910390f35b3480156102af57600080fd5b506102ca60048036038101906102c59190611491565b61091e565b6040516102d7919061131e565b60405180910390f35b3480156102ec57600080fd5b506103076004803603810190610302919061164a565b6109ca565b005b6000806000837bffffffffffffffffffffffffffffffffffffffffffffffffffffffff19167bffffffffffffffffffffffffffffffffffffffffffffffffffffffff1916815260200190815260200160002060009054906101000a900460ff169050919050565b60606001805461037f906116c2565b80601f01602080910402602001604051908101604052809291908181526020018280546103ab906116c2565b80156103f85780601f106103cd576101008083540402835291602001916103f8565b820191906000526020600020905b8154815290600101906020018083116103db57829003601f168201915b5050505050905090565b600061040d82610724565b90508073ffffffffffffffffffffffffffffffffffffffff168373ffffffffffffffffffffffffffffffffffffffff160361047d576040517f08c379a000000000000000000000000000000000000000000000000000000000815260040161047490611765565b60405180910390fd5b8073ffffffffffffffffffffffffffffffffffffffff163373ffffffffffffffffffffffffffffffffffffffff16146104eb576040517f08c379a00000000000000000000000000000000000000000000000000000000081526004016104e2906117f7565b60405180910390fd5b826005600084815260200190815260200160002060006101000a81548173ffffffffffffffffffffffffffffffffffffffff021916908373ffffffffffffffffffffffffffffffffffffffff160217905550818373ffffffffffffffffffffffffffffffffffffffff168273ffffffffffffffffffffffffffffffffffffffff167f8c5be1e5ebec7d5bd14f71427d1e84f3dd0314c0f7b2291e5b200ac8c7c3b92560405160405180910390a4505050565b6000600680549050905090565b6105b43382610a96565b6105f3576040517f08c379a00000000000000000000000000000000000000000000000000000000081526004016105ea90611863565b60405180910390fd5b6105fe838383610b25565b505050565b600061060e836107d5565b821061064f576040517f08c379a0000000000000000000000000000000000000000000000000000000008152600401610646906118cf565b60405180910390fd5b600860008473ffffffffffffffffffffffffffffffffffffffff1673ffffffffffffffffffffffffffffffffffffffff16815260200190815260200160002082815481106106a05761069f6118ef565b5b9060005260206000200154905092915050565b60006106bd61059d565b82106106fe576040517f08c379a00000000000000000000000000000000000000000000000000000000081526004016106f59061196a565b60405180910390fd5b60068281548110610712576107116118ef565b5b90600052602060002001549050919050565b6000806003600084815260200190815260200160002060009054906101000a900473ffffffffffffffffffffffffffffffffffffffff169050600073ffffffffffffffffffffffffffffffffffffffff168173ffffffffffffffffffffffffffffffffffffffff16036107cc576040517f08c379a00000000000000000000000000000000000000000000000000000000081526004016107c3906119d6565b60405180910390fd5b80915050919050565b60008073ffffffffffffffffffffffffffffffffffffffff168273ffffffffffffffffffffffffffffffffffffffff1603610845576040517f08c379a000000000000000000000000000000000000000000000000000000000815260040161083c90611a42565b60405180910390fd5b600460008373ffffffffffffffffffffffffffffffffffffffff1673ffffffffffffffffffffffffffffffffffffffff168152602001908152602001600020549050919050565b60606002805461089b906116c2565b80601f01602080910402602001604051908101604052809291908181526020018280546108c7906116c2565b80156109145780601f106108e957610100808354040283529160200191610914565b820191906000526020600020905b8154815290600101906020018083116108f757829003601f168201915b5050505050905090565b600a818154811061092e57600080fd5b906000526020600020016000915090508054610949906116c2565b80601f0160208091040260200160405190810160405280929190818152602001828054610975906116c2565b80156109c25780601f10610997576101008083540402835291602001916109c2565b820191906000526020600020905b8154815290600101906020018083116109a557829003601f168201915b505050505081565b600b816040516109da9190611a9e565b908152602001604051809103902060009054906101000a900460ff1615610a36576040517f08c379a0000000000000000000000000000000000000000000000000000000008152600401610a2d90611b01565b60405180910390fd5b600a81908060018154018082558091505060019003906000526020600020016000909190919091509080519060200190610a71929190611113565b5060006001600a80549050610a869190611b50565b9050610a923382610db2565b5050565b6000610aa182610dd3565b610ae0576040517f08c379a0000000000000000000000000000000000000000000000000000000008152600401610ad790611bd0565b60405180910390fd5b6000610aeb83610724565b90508073ffffffffffffffffffffffffffffffffffffffff168473ffffffffffffffffffffffffffffffffffffffff161491505092915050565b600073ffffffffffffffffffffffffffffffffffffffff168273ffffffffffffffffffffffffffffffffffffffff1603610b94576040517f08c379a0000000000000000000000000000000000000000000000000000000008152600401610b8b90611c3c565b60405180910390fd5b610b9d81610724565b73ffffffffffffffffffffffffffffffffffffffff168373ffffffffffffffffffffffffffffffffffffffff1614610c0a576040517f08c379a0000000000000000000000000000000000000000000000000000000008152600401610c0190611ca8565b60405180910390fd5b610c1381610dd3565b610c52576040517f08c379a0000000000000000000000000000000000000000000000000000000008152600401610c4990611d14565b60405180910390fd5b816003600083815260200190815260200160002060006101000a81548173ffffffffffffffffffffffffffffffffffffffff021916908373ffffffffffffffffffffffffffffffffffffffff1602179055506001600460008473ffffffffffffffffffffffffffffffffffffffff1673ffffffffffffffffffffffffffffffffffffffff1681526020019081526020016000206000828254610cf49190611d34565b925050819055506001600460008573ffffffffffffffffffffffffffffffffffffffff1673ffffffffffffffffffffffffffffffffffffffff1681526020019081526020016000206000828254610d4b9190611b50565b92505081905550808273ffffffffffffffffffffffffffffffffffffffff168473ffffffffffffffffffffffffffffffffffffffff167fddf252ad1be2c89b69c2b068fc378daa952ba7f163c4a11628f55a4df523b3ef60405160405180910390a4505050565b610dbc8282610e45565b610dc581611006565b610dcf828261104f565b5050565b6000806003600084815260200190815260200160002060009054906101000a900473ffffffffffffffffffffffffffffffffffffffff169050600073ffffffffffffffffffffffffffffffffffffffff168173ffffffffffffffffffffffffffffffffffffffff161415915050919050565b600073ffffffffffffffffffffffffffffffffffffffff168273ffffffffffffffffffffffffffffffffffffffff1603610eb4576040517f08c379a0000000000000000000000000000000000000000000000000000000008152600401610eab90611dd6565b60405180910390fd5b610ebd81610dd3565b15610efd576040517f08c379a0000000000000000000000000000000000000000000000000000000008152600401610ef490611e42565b60405180910390fd5b816003600083815260200190815260200160002060006101000a81548173ffffffffffffffffffffffffffffffffffffffff021916908373ffffffffffffffffffffffffffffffffffffffff1602179055506001600460008473ffffffffffffffffffffffffffffffffffffffff1673ffffffffffffffffffffffffffffffffffffffff1681526020019081526020016000206000828254610f9f9190611d34565b92505081905550808273ffffffffffffffffffffffffffffffffffffffff16600073ffffffffffffffffffffffffffffffffffffffff167fddf252ad1be2c89b69c2b068fc378daa952ba7f163c4a11628f55a4df523b3ef60405160405180910390a45050565b6006805490506007600083815260200190815260200160002081905550600681908060018154018082558091505060019003906000526020600020016000909190919091505550565b600860008373ffffffffffffffffffffffffffffffffffffffff1673ffffffffffffffffffffffffffffffffffffffff168152602001908152602001600020805490506009600083815260200190815260200160002081905550600860008373ffffffffffffffffffffffffffffffffffffffff1673ffffffffffffffffffffffffffffffffffffffff1681526020019081526020016000208190806001815401808255809150506001900390600052602060002001600090919091909150555050565b82805461111f906116c2565b90600052602060002090601f0160209004810192826111415760008555611188565b82601f1061115a57805160ff1916838001178555611188565b82800160010185558215611188579182015b8281111561118757825182559160200191906001019061116c565b5b5090506111959190611199565b5090565b5b808211156111b257600081600090555060010161119a565b5090565b6000604051905090565b600080fd5b600080fd5b60007fffffffff0000000000000000000000000000000000000000000000000000000082169050919050565b6111ff816111ca565b811461120a57600080fd5b50565b60008135905061121c816111f6565b92915050565b600060208284031215611238576112376111c0565b5b60006112468482850161120d565b91505092915050565b60008115159050919050565b6112648161124f565b82525050565b600060208201905061127f600083018461125b565b92915050565b600081519050919050565b600082825260208201905092915050565b60005b838110156112bf5780820151818401526020810190506112a4565b838111156112ce576000848401525b50505050565b6000601f19601f8301169050919050565b60006112f082611285565b6112fa8185611290565b935061130a8185602086016112a1565b611313816112d4565b840191505092915050565b6000602082019050818103600083015261133881846112e5565b905092915050565b600073ffffffffffffffffffffffffffffffffffffffff82169050919050565b600061136b82611340565b9050919050565b61137b81611360565b811461138657600080fd5b50565b60008135905061139881611372565b92915050565b6000819050919050565b6113b18161139e565b81146113bc57600080fd5b50565b6000813590506113ce816113a8565b92915050565b600080604083850312156113eb576113ea6111c0565b5b60006113f985828601611389565b925050602061140a858286016113bf565b9150509250929050565b61141d8161139e565b82525050565b60006020820190506114386000830184611414565b92915050565b600080600060608486031215611457576114566111c0565b5b600061146586828701611389565b935050602061147686828701611389565b9250506040611487868287016113bf565b9150509250925092565b6000602082840312156114a7576114a66111c0565b5b60006114b5848285016113bf565b91505092915050565b6114c781611360565b82525050565b60006020820190506114e260008301846114be565b92915050565b6000602082840312156114fe576114fd6111c0565b5b600061150c84828501611389565b91505092915050565b600080fd5b600080fd5b7f4e487b7100000000000000000000000000000000000000000000000000000000600052604160045260246000fd5b611557826112d4565b810181811067ffffffffffffffff821117156115765761157561151f565b5b80604052505050565b60006115896111b6565b9050611595828261154e565b919050565b600067ffffffffffffffff8211156115b5576115b461151f565b5b6115be826112d4565b9050602081019050919050565b82818337600083830152505050565b60006115ed6115e88461159a565b61157f565b9050828152602081018484840111156116095761160861151a565b5b6116148482856115cb565b509392505050565b600082601f83011261163157611630611515565b5b81356116418482602086016115da565b91505092915050565b6000602082840312156116605761165f6111c0565b5b600082013567ffffffffffffffff81111561167e5761167d6111c5565b5b61168a8482850161161c565b91505092915050565b7f4e487b7100000000000000000000000000000000000000000000000000000000600052602260045260246000fd5b600060028204905060018216806116da57607f821691505b6020821081036116ed576116ec611693565b5b50919050565b7f4572726f72203a20417070726f76616c20746f2063757272656e74206f776e6560008201527f7200000000000000000000000000000000000000000000000000000000000000602082015250565b600061174f602183611290565b915061175a826116f3565b604082019050919050565b6000602082019050818103600083015261177e81611742565b9050919050565b7f4572726f72203a2043757272656e742063616c6c6572206973206e6f74204f7760008201527f6e6572206f662074686520746f6b656e00000000000000000000000000000000602082015250565b60006117e1603083611290565b91506117ec82611785565b604082019050919050565b60006020820190508181036000830152611810816117d4565b9050919050565b7f4572726f72000000000000000000000000000000000000000000000000000000600082015250565b600061184d600583611290565b915061185882611817565b602082019050919050565b6000602082019050818103600083015261187c81611840565b9050919050565b7f4f776e657220696e646578206973206f7574206f6620626f756e647300000000600082015250565b60006118b9601c83611290565b91506118c482611883565b602082019050919050565b600060208201905081810360008301526118e8816118ac565b9050919050565b7f4e487b7100000000000000000000000000000000000000000000000000000000600052603260045260246000fd5b7f476c6f62616c20696e646578206973206f7574206f6620626f756e6473000000600082015250565b6000611954601d83611290565b915061195f8261191e565b602082019050919050565b6000602082019050818103600083015261198381611947565b9050919050565b7f6e6f206f776e6572000000000000000000000000000000000000000000000000600082015250565b60006119c0600883611290565b91506119cb8261198a565b602082019050919050565b600060208201905081810360008301526119ef816119b3565b9050919050565b7f57726f6e67206164647265737300000000000000000000000000000000000000600082015250565b6000611a2c600d83611290565b9150611a37826119f6565b602082019050919050565b60006020820190508181036000830152611a5b81611a1f565b9050919050565b600081905092915050565b6000611a7882611285565b611a828185611a62565b9350611a928185602086016112a1565b80840191505092915050565b6000611aaa8284611a6d565b915081905092915050565b7f4572726f73202d207374616d702045786973747320616c726561647900000000600082015250565b6000611aeb601c83611290565b9150611af682611ab5565b602082019050919050565b60006020820190508181036000830152611b1a81611ade565b9050919050565b7f4e487b7100000000000000000000000000000000000000000000000000000000600052601160045260246000fd5b6000611b5b8261139e565b9150611b668361139e565b925082821015611b7957611b78611b21565b5b828203905092915050565b7f20546f6b656e20646f6573742065786973740000000000000000000000000000600082015250565b6000611bba601283611290565b9150611bc582611b84565b602082019050919050565b60006020820190508181036000830152611be981611bad565b9050919050565b7f4572726f723a20496e76616c696420546f206164647265737300000000000000600082015250565b6000611c26601983611290565b9150611c3182611bf0565b602082019050919050565b60006020820190508181036000830152611c5581611c19565b9050919050565b7f4572726f723a20596f7520646f776e206f776e2074686520546f6b656e000000600082015250565b6000611c92601d83611290565b9150611c9d82611c5c565b602082019050919050565b60006020820190508181036000830152611cc181611c85565b9050919050565b7f4572726f723a20546f6b656e20446f65736e7420657869737473000000000000600082015250565b6000611cfe601a83611290565b9150611d0982611cc8565b602082019050919050565b60006020820190508181036000830152611d2d81611cf1565b9050919050565b6000611d3f8261139e565b9150611d4a8361139e565b9250827fffffffffffffffffffffffffffffffffffffffffffffffffffffffffffffffff03821115611d7f57611d7e611b21565b5b828201905092915050565b7f455243373231206d696e74696e6720746f203020616464726573730000000000600082015250565b6000611dc0601b83611290565b9150611dcb82611d8a565b602082019050919050565b60006020820190508181036000830152611def81611db3565b9050919050565b7f546f6b656e20616c726561647920657869737473000000000000000000000000600082015250565b6000611e2c601483611290565b9150611e3782611df6565b602082019050919050565b60006020820190508181036000830152611e5b81611e1f565b905091905056fea264697066735822122084b8bfee86c78a3e872f462faf04edbd43d203fc2f61a11a798c898bf755470864736f6c634300080d0033",
  "immutableReferences": {},
  "source": "// SPDX-License-Identifier: MIT\npragma solidity ^0.8.0;\nimport \"./ERC721Connector.sol\";\n\ncontract RareStampz is ERC721Connector {\n    string[] public stamps;\n\n    mapping(string => bool) _stampsExistence;\n\n    function mint(string memory _stamp) public {\n        require(!_stampsExistence[_stamp], \"Erros - stamp Exists already\");\n        stamps.push(_stamp);\n        uint256 id = stamps.length - 1;\n        _mint(msg.sender, id);\n    }\n\n    constructor() ERC721Connector(\"RareStampz\", \"RSTAMPZ\") {}\n}\n",
  "sourcePath": "/Users/Jayu/Sites/NFT/nft-marketplace-starter-kit/src/contracts/RareStampz.sol",
  "compiler": {
    "name": "solc",
    "version": "0.8.13+commit.abaa5c0e.Emscripten.clang"
  },
  "schemaVersion": "3.4.5",
  "updatedAt": "2022-04-21T11:04:06.420Z",
  "networkType": "ethereum",
  "devdoc": {
    "kind": "dev",
    "methods": {
      "supportsInterface(bytes4)": {
        "details": "Interface identification is specified in ERC-165. This function  uses less than 30,000 gas.",
        "params": {
          "interfaceID": "The interface identifier, as specified in ERC-165"
        },
        "returns": {
          "_0": "`true` if the contract implements `interfaceID` and  `interfaceID` is not 0xffffffff, `false` otherwise"
        }
      },
      "totalSupply()": {
        "returns": {
          "_0": "A count of valid NFTs tracked by this contract, where each one of  them has an assigned and queryable owner not equal to the zero address"
        }
      }
    },
    "version": 1
  },
  "userdoc": {
    "kind": "user",
    "methods": {
      "supportsInterface(bytes4)": {
        "notice": "Query if a contract implements an interface"
      },
      "totalSupply()": {
        "notice": "Count NFTs tracked by this contract"
      }
    },
    "version": 1
  }
}