{
  "contractName": "RareStampz",
  "abi": [
    {
      "inputs": [],
      "stateMutability": "nonpayable",
      "type": "constructor"
    },
    {
      "anonymous": false,
      "inputs": [
        {
          "indexed": true,
          "internalType": "address",
          "name": "from",
          "type": "address"
        },
        {
          "indexed": true,
          "internalType": "address",
          "name": "to",
          "type": "address"
        },
        {
          "indexed": true,
          "internalType": "uint256",
          "name": "tokenId",
          "type": "uint256"
        }
      ],
      "name": "Transfer",
      "type": "event"
    },
    {
      "inputs": [],
      "name": "name",
      "outputs": [
        {
          "internalType": "string",
          "name": "",
          "type": "string"
        }
      ],
      "stateMutability": "view",
      "type": "function",
      "constant": true
    },
    {
      "inputs": [
        {
          "internalType": "uint256",
          "name": "",
          "type": "uint256"
        }
      ],
      "name": "stamps",
      "outputs": [
        {
          "internalType": "string",
          "name": "",
          "type": "string"
        }
      ],
      "stateMutability": "view",
      "type": "function",
      "constant": true
    },
    {
      "inputs": [],
      "name": "symbol",
      "outputs": [
        {
          "internalType": "string",
          "name": "",
          "type": "string"
        }
      ],
      "stateMutability": "view",
      "type": "function",
      "constant": true
    },
    {
      "inputs": [
        {
          "internalType": "string",
          "name": "_stamp",
          "type": "string"
        }
      ],
      "name": "mint",
      "outputs": [],
      "stateMutability": "nonpayable",
      "type": "function"
    }
  ],
  "bytecode": "0x60806040523480156200001157600080fd5b506040518060400160405280600a81526020017f526172655374616d707a000000000000000000000000000000000000000000008152506040518060400160405280600781526020017f525354414d505a000000000000000000000000000000000000000000000000008152508181816000908051906020019062000098929190620000bc565b508060019080519060200190620000b1929190620000bc565b5050505050620001d1565b828054620000ca906200019b565b90600052602060002090601f016020900481019282620000ee57600085556200013a565b82601f106200010957805160ff19168380011785556200013a565b828001600101855582156200013a579182015b82811115620001395782518255916020019190600101906200011c565b5b5090506200014991906200014d565b5090565b5b80821115620001685760008160009055506001016200014e565b5090565b7f4e487b7100000000000000000000000000000000000000000000000000000000600052602260045260246000fd5b60006002820490506001821680620001b457607f821691505b60208210811415620001cb57620001ca6200016c565b5b50919050565b610be380620001e16000396000f3fe608060405234801561001057600080fd5b506004361061004c5760003560e01c806306fdde031461005157806395d89b411461006f578063ccd68f3b1461008d578063d85d3d27146100bd575b600080fd5b6100596100d9565b60405161006691906106e5565b60405180910390f35b61007761016b565b60405161008491906106e5565b60405180910390f35b6100a760048036038101906100a29190610751565b6101fd565b6040516100b491906106e5565b60405180910390f35b6100d760048036038101906100d291906108b3565b6102a9565b005b6060600080546100e89061092b565b80601f01602080910402602001604051908101604052809291908181526020018280546101149061092b565b80156101615780601f1061013657610100808354040283529160200191610161565b820191906000526020600020905b81548152906001019060200180831161014457829003601f168201915b5050505050905090565b60606001805461017a9061092b565b80601f01602080910402602001604051908101604052809291908181526020018280546101a69061092b565b80156101f35780601f106101c8576101008083540402835291602001916101f3565b820191906000526020600020905b8154815290600101906020018083116101d657829003601f168201915b5050505050905090565b6004818154811061020d57600080fd5b9060005260206000200160009150905080546102289061092b565b80601f01602080910402602001604051908101604052809291908181526020018280546102549061092b565b80156102a15780601f10610276576101008083540402835291602001916102a1565b820191906000526020600020905b81548152906001019060200180831161028457829003601f168201915b505050505081565b6005816040516102b99190610999565b908152602001604051809103902060009054906101000a900460ff1615610315576040517f08c379a000000000000000000000000000000000000000000000000000000000815260040161030c906109fc565b60405180910390fd5b6004819080600181540180825580915050600190039060005260206000200160009091909190915090805190602001906103509291906105a9565b50600060016004805490506103659190610a4b565b90506103713382610375565b5050565b600073ffffffffffffffffffffffffffffffffffffffff168273ffffffffffffffffffffffffffffffffffffffff1614156103e5576040517f08c379a00000000000000000000000000000000000000000000000000000000081526004016103dc90610acb565b60405180910390fd5b6103ee81610537565b1561042e576040517f08c379a000000000000000000000000000000000000000000000000000000000815260040161042590610b37565b60405180910390fd5b816002600083815260200190815260200160002060006101000a81548173ffffffffffffffffffffffffffffffffffffffff021916908373ffffffffffffffffffffffffffffffffffffffff1602179055506001600360008473ffffffffffffffffffffffffffffffffffffffff1673ffffffffffffffffffffffffffffffffffffffff16815260200190815260200160002060008282546104d09190610b57565b92505081905550808273ffffffffffffffffffffffffffffffffffffffff16600073ffffffffffffffffffffffffffffffffffffffff167fddf252ad1be2c89b69c2b068fc378daa952ba7f163c4a11628f55a4df523b3ef60405160405180910390a45050565b6000806002600084815260200190815260200160002060009054906101000a900473ffffffffffffffffffffffffffffffffffffffff169050600073ffffffffffffffffffffffffffffffffffffffff168173ffffffffffffffffffffffffffffffffffffffff161415915050919050565b8280546105b59061092b565b90600052602060002090601f0160209004810192826105d7576000855561061e565b82601f106105f057805160ff191683800117855561061e565b8280016001018555821561061e579182015b8281111561061d578251825591602001919060010190610602565b5b50905061062b919061062f565b5090565b5b80821115610648576000816000905550600101610630565b5090565b600081519050919050565b600082825260208201905092915050565b60005b8381101561068657808201518184015260208101905061066b565b83811115610695576000848401525b50505050565b6000601f19601f8301169050919050565b60006106b78261064c565b6106c18185610657565b93506106d1818560208601610668565b6106da8161069b565b840191505092915050565b600060208201905081810360008301526106ff81846106ac565b905092915050565b6000604051905090565b600080fd5b600080fd5b6000819050919050565b61072e8161071b565b811461073957600080fd5b50565b60008135905061074b81610725565b92915050565b60006020828403121561076757610766610711565b5b60006107758482850161073c565b91505092915050565b600080fd5b600080fd5b7f4e487b7100000000000000000000000000000000000000000000000000000000600052604160045260246000fd5b6107c08261069b565b810181811067ffffffffffffffff821117156107df576107de610788565b5b80604052505050565b60006107f2610707565b90506107fe82826107b7565b919050565b600067ffffffffffffffff82111561081e5761081d610788565b5b6108278261069b565b9050602081019050919050565b82818337600083830152505050565b600061085661085184610803565b6107e8565b90508281526020810184848401111561087257610871610783565b5b61087d848285610834565b509392505050565b600082601f83011261089a5761089961077e565b5b81356108aa848260208601610843565b91505092915050565b6000602082840312156108c9576108c8610711565b5b600082013567ffffffffffffffff8111156108e7576108e6610716565b5b6108f384828501610885565b91505092915050565b7f4e487b7100000000000000000000000000000000000000000000000000000000600052602260045260246000fd5b6000600282049050600182168061094357607f821691505b60208210811415610957576109566108fc565b5b50919050565b600081905092915050565b60006109738261064c565b61097d818561095d565b935061098d818560208601610668565b80840191505092915050565b60006109a58284610968565b915081905092915050565b7f4572726f73202d207374616d702045786973747320616c726561647900000000600082015250565b60006109e6601c83610657565b91506109f1826109b0565b602082019050919050565b60006020820190508181036000830152610a15816109d9565b9050919050565b7f4e487b7100000000000000000000000000000000000000000000000000000000600052601160045260246000fd5b6000610a568261071b565b9150610a618361071b565b925082821015610a7457610a73610a1c565b5b828203905092915050565b7f455243373231206d696e74696e6720746f203020616464726573730000000000600082015250565b6000610ab5601b83610657565b9150610ac082610a7f565b602082019050919050565b60006020820190508181036000830152610ae481610aa8565b9050919050565b7f546f6b656e20616c726561647920657869737473000000000000000000000000600082015250565b6000610b21601483610657565b9150610b2c82610aeb565b602082019050919050565b60006020820190508181036000830152610b5081610b14565b9050919050565b6000610b628261071b565b9150610b6d8361071b565b9250827fffffffffffffffffffffffffffffffffffffffffffffffffffffffffffffffff03821115610ba257610ba1610a1c565b5b82820190509291505056fea2646970667358221220502924f5181c11dedc638ee696c9b1628f126491dfd24c6202376d25b30c3e8e64736f6c634300080c0033",
  "immutableReferences": {},
  "source": "// SPDX-License-Identifier: MIT\npragma solidity ^0.8.0;\nimport \"./ERC721Connector.sol\";\n\ncontract RareStampz is ERC721Connector {\n    string[] public stamps;\n\n    mapping(string => bool) _stampsExistence;\n\n    function mint(string memory _stamp) public {\n        require(!_stampsExistence[_stamp], \"Erros - stamp Exists already\");\n        stamps.push(_stamp);\n        uint256 id = stamps.length - 1;\n        _mint(msg.sender, id);\n    }\n\n    constructor() ERC721Connector(\"RareStampz\", \"RSTAMPZ\") {}\n}\n",
  "sourcePath": "/Users/Jayu/Sites/NFT/nft-marketplace-starter-kit/src/contracts/RareStampz.sol",
  "compiler": {
    "name": "solc",
    "version": "0.8.12+commit.f00d7308.Emscripten.clang"
  },
  "schemaVersion": "3.4.5",
  "updatedAt": "2022-02-24T19:40:00.972Z",
  "networkType": "ethereum",
  "devdoc": {
    "kind": "dev",
    "methods": {},
    "version": 1
  },
  "userdoc": {
    "kind": "user",
    "methods": {},
    "version": 1
  }
}