{
  "contractName": "RareStampz",
  "abi": [
    {
      "inputs": [],
      "stateMutability": "nonpayable",
      "type": "constructor"
    },
    {
      "anonymous": false,
      "inputs": [
        {
          "indexed": true,
          "internalType": "address",
          "name": "from",
          "type": "address"
        },
        {
          "indexed": true,
          "internalType": "address",
          "name": "to",
          "type": "address"
        },
        {
          "indexed": true,
          "internalType": "uint256",
          "name": "tokenId",
          "type": "uint256"
        }
      ],
      "name": "Transfer",
      "type": "event"
    },
    {
      "inputs": [
        {
          "internalType": "address",
          "name": "_owner",
          "type": "address"
        }
      ],
      "name": "balanceOf",
      "outputs": [
        {
          "internalType": "uint256",
          "name": "",
          "type": "uint256"
        }
      ],
      "stateMutability": "view",
      "type": "function",
      "constant": true
    },
    {
      "inputs": [],
      "name": "name",
      "outputs": [
        {
          "internalType": "string",
          "name": "",
          "type": "string"
        }
      ],
      "stateMutability": "view",
      "type": "function",
      "constant": true
    },
    {
      "inputs": [
        {
          "internalType": "uint256",
          "name": "_tokenId",
          "type": "uint256"
        }
      ],
      "name": "ownerOf",
      "outputs": [
        {
          "internalType": "address",
          "name": "",
          "type": "address"
        }
      ],
      "stateMutability": "view",
      "type": "function",
      "constant": true
    },
    {
      "inputs": [
        {
          "internalType": "uint256",
          "name": "",
          "type": "uint256"
        }
      ],
      "name": "stamps",
      "outputs": [
        {
          "internalType": "string",
          "name": "",
          "type": "string"
        }
      ],
      "stateMutability": "view",
      "type": "function",
      "constant": true
    },
    {
      "inputs": [],
      "name": "symbol",
      "outputs": [
        {
          "internalType": "string",
          "name": "",
          "type": "string"
        }
      ],
      "stateMutability": "view",
      "type": "function",
      "constant": true
    },
    {
      "inputs": [
        {
          "internalType": "uint256",
          "name": "index",
          "type": "uint256"
        }
      ],
      "name": "tokenByIndex",
      "outputs": [
        {
          "internalType": "uint256",
          "name": "",
          "type": "uint256"
        }
      ],
      "stateMutability": "view",
      "type": "function",
      "constant": true
    },
    {
      "inputs": [
        {
          "internalType": "address",
          "name": "owner",
          "type": "address"
        },
        {
          "internalType": "uint256",
          "name": "index",
          "type": "uint256"
        }
      ],
      "name": "tokenOfOwnerByIndex",
      "outputs": [
        {
          "internalType": "uint256",
          "name": "",
          "type": "uint256"
        }
      ],
      "stateMutability": "view",
      "type": "function",
      "constant": true
    },
    {
      "inputs": [],
      "name": "totalSupply",
      "outputs": [
        {
          "internalType": "uint256",
          "name": "",
          "type": "uint256"
        }
      ],
      "stateMutability": "view",
      "type": "function",
      "constant": true
    },
    {
      "inputs": [
        {
          "internalType": "string",
          "name": "_stamp",
          "type": "string"
        }
      ],
      "name": "mint",
      "outputs": [],
      "stateMutability": "nonpayable",
      "type": "function"
    }
  ],
  "bytecode": "0x60806040523480156200001157600080fd5b506040518060400160405280600a81526020017f526172655374616d707a000000000000000000000000000000000000000000008152506040518060400160405280600781526020017f525354414d505a000000000000000000000000000000000000000000000000008152508181816000908051906020019062000098929190620000bc565b508060019080519060200190620000b1929190620000bc565b5050505050620001d0565b828054620000ca906200019b565b90600052602060002090601f016020900481019282620000ee57600085556200013a565b82601f106200010957805160ff19168380011785556200013a565b828001600101855582156200013a579182015b82811115620001395782518255916020019190600101906200011c565b5b5090506200014991906200014d565b5090565b5b80821115620001685760008160009055506001016200014e565b5090565b7f4e487b7100000000000000000000000000000000000000000000000000000000600052602260045260246000fd5b60006002820490506001821680620001b457607f821691505b602082108103620001ca57620001c96200016c565b5b50919050565b6113c880620001e06000396000f3fe608060405234801561001057600080fd5b50600436106100935760003560e01c80636352211e116100665780636352211e1461013457806370a082311461016457806395d89b4114610194578063ccd68f3b146101b2578063d85d3d27146101e257610093565b806306fdde031461009857806318160ddd146100b65780632f745c59146100d45780634f6ccce714610104575b600080fd5b6100a06101fe565b6040516100ad9190610bcd565b60405180910390f35b6100be610290565b6040516100cb9190610c08565b60405180910390f35b6100ee60048036038101906100e99190610cc1565b61029d565b6040516100fb9190610c08565b60405180910390f35b61011e60048036038101906101199190610d01565b61034d565b60405161012b9190610c08565b60405180910390f35b61014e60048036038101906101499190610d01565b6103be565b60405161015b9190610d3d565b60405180910390f35b61017e60048036038101906101799190610d58565b61046f565b60405161018b9190610c08565b60405180910390f35b61019c610526565b6040516101a99190610bcd565b60405180910390f35b6101cc60048036038101906101c79190610d01565b6105b8565b6040516101d99190610bcd565b60405180910390f35b6101fc60048036038101906101f79190610eba565b610664565b005b60606000805461020d90610f32565b80601f016020809104026020016040519081016040528092919081815260200182805461023990610f32565b80156102865780601f1061025b57610100808354040283529160200191610286565b820191906000526020600020905b81548152906001019060200180831161026957829003601f168201915b5050505050905090565b6000600480549050905090565b60006102a88361046f565b82106102e9576040517f08c379a00000000000000000000000000000000000000000000000000000000081526004016102e090610faf565b60405180910390fd5b600660008473ffffffffffffffffffffffffffffffffffffffff1673ffffffffffffffffffffffffffffffffffffffff168152602001908152602001600020828154811061033a57610339610fcf565b5b9060005260206000200154905092915050565b6000610357610290565b8210610398576040517f08c379a000000000000000000000000000000000000000000000000000000000815260040161038f9061104a565b60405180910390fd5b600482815481106103ac576103ab610fcf565b5b90600052602060002001549050919050565b6000806002600084815260200190815260200160002060009054906101000a900473ffffffffffffffffffffffffffffffffffffffff169050600073ffffffffffffffffffffffffffffffffffffffff168173ffffffffffffffffffffffffffffffffffffffff1603610466576040517f08c379a000000000000000000000000000000000000000000000000000000000815260040161045d906110b6565b60405180910390fd5b80915050919050565b60008073ffffffffffffffffffffffffffffffffffffffff168273ffffffffffffffffffffffffffffffffffffffff16036104df576040517f08c379a00000000000000000000000000000000000000000000000000000000081526004016104d690611122565b60405180910390fd5b600360008373ffffffffffffffffffffffffffffffffffffffff1673ffffffffffffffffffffffffffffffffffffffff168152602001908152602001600020549050919050565b60606001805461053590610f32565b80601f016020809104026020016040519081016040528092919081815260200182805461056190610f32565b80156105ae5780601f10610583576101008083540402835291602001916105ae565b820191906000526020600020905b81548152906001019060200180831161059157829003601f168201915b5050505050905090565b600881815481106105c857600080fd5b9060005260206000200160009150905080546105e390610f32565b80601f016020809104026020016040519081016040528092919081815260200182805461060f90610f32565b801561065c5780601f106106315761010080835404028352916020019161065c565b820191906000526020600020905b81548152906001019060200180831161063f57829003601f168201915b505050505081565b600981604051610674919061117e565b908152602001604051809103902060009054906101000a900460ff16156106d0576040517f08c379a00000000000000000000000000000000000000000000000000000000081526004016106c7906111e1565b60405180910390fd5b60088190806001815401808255809150506001900390600052602060002001600090919091909150908051906020019061070b929190610a91565b50600060016008805490506107209190611230565b905061072c3382610730565b5050565b61073a8282610751565b61074381610912565b61074d828261095b565b5050565b600073ffffffffffffffffffffffffffffffffffffffff168273ffffffffffffffffffffffffffffffffffffffff16036107c0576040517f08c379a00000000000000000000000000000000000000000000000000000000081526004016107b7906112b0565b60405180910390fd5b6107c981610a1f565b15610809576040517f08c379a00000000000000000000000000000000000000000000000000000000081526004016108009061131c565b60405180910390fd5b816002600083815260200190815260200160002060006101000a81548173ffffffffffffffffffffffffffffffffffffffff021916908373ffffffffffffffffffffffffffffffffffffffff1602179055506001600360008473ffffffffffffffffffffffffffffffffffffffff1673ffffffffffffffffffffffffffffffffffffffff16815260200190815260200160002060008282546108ab919061133c565b92505081905550808273ffffffffffffffffffffffffffffffffffffffff16600073ffffffffffffffffffffffffffffffffffffffff167fddf252ad1be2c89b69c2b068fc378daa952ba7f163c4a11628f55a4df523b3ef60405160405180910390a45050565b6004805490506005600083815260200190815260200160002081905550600481908060018154018082558091505060019003906000526020600020016000909190919091505550565b600660008373ffffffffffffffffffffffffffffffffffffffff1673ffffffffffffffffffffffffffffffffffffffff168152602001908152602001600020805490506007600083815260200190815260200160002081905550600660008373ffffffffffffffffffffffffffffffffffffffff1673ffffffffffffffffffffffffffffffffffffffff1681526020019081526020016000208190806001815401808255809150506001900390600052602060002001600090919091909150555050565b6000806002600084815260200190815260200160002060009054906101000a900473ffffffffffffffffffffffffffffffffffffffff169050600073ffffffffffffffffffffffffffffffffffffffff168173ffffffffffffffffffffffffffffffffffffffff161415915050919050565b828054610a9d90610f32565b90600052602060002090601f016020900481019282610abf5760008555610b06565b82601f10610ad857805160ff1916838001178555610b06565b82800160010185558215610b06579182015b82811115610b05578251825591602001919060010190610aea565b5b509050610b139190610b17565b5090565b5b80821115610b30576000816000905550600101610b18565b5090565b600081519050919050565b600082825260208201905092915050565b60005b83811015610b6e578082015181840152602081019050610b53565b83811115610b7d576000848401525b50505050565b6000601f19601f8301169050919050565b6000610b9f82610b34565b610ba98185610b3f565b9350610bb9818560208601610b50565b610bc281610b83565b840191505092915050565b60006020820190508181036000830152610be78184610b94565b905092915050565b6000819050919050565b610c0281610bef565b82525050565b6000602082019050610c1d6000830184610bf9565b92915050565b6000604051905090565b600080fd5b600080fd5b600073ffffffffffffffffffffffffffffffffffffffff82169050919050565b6000610c6282610c37565b9050919050565b610c7281610c57565b8114610c7d57600080fd5b50565b600081359050610c8f81610c69565b92915050565b610c9e81610bef565b8114610ca957600080fd5b50565b600081359050610cbb81610c95565b92915050565b60008060408385031215610cd857610cd7610c2d565b5b6000610ce685828601610c80565b9250506020610cf785828601610cac565b9150509250929050565b600060208284031215610d1757610d16610c2d565b5b6000610d2584828501610cac565b91505092915050565b610d3781610c57565b82525050565b6000602082019050610d526000830184610d2e565b92915050565b600060208284031215610d6e57610d6d610c2d565b5b6000610d7c84828501610c80565b91505092915050565b600080fd5b600080fd5b7f4e487b7100000000000000000000000000000000000000000000000000000000600052604160045260246000fd5b610dc782610b83565b810181811067ffffffffffffffff82111715610de657610de5610d8f565b5b80604052505050565b6000610df9610c23565b9050610e058282610dbe565b919050565b600067ffffffffffffffff821115610e2557610e24610d8f565b5b610e2e82610b83565b9050602081019050919050565b82818337600083830152505050565b6000610e5d610e5884610e0a565b610def565b905082815260208101848484011115610e7957610e78610d8a565b5b610e84848285610e3b565b509392505050565b600082601f830112610ea157610ea0610d85565b5b8135610eb1848260208601610e4a565b91505092915050565b600060208284031215610ed057610ecf610c2d565b5b600082013567ffffffffffffffff811115610eee57610eed610c32565b5b610efa84828501610e8c565b91505092915050565b7f4e487b7100000000000000000000000000000000000000000000000000000000600052602260045260246000fd5b60006002820490506001821680610f4a57607f821691505b602082108103610f5d57610f5c610f03565b5b50919050565b7f4f776e657220696e646578206973206f7574206f6620626f756e647300000000600082015250565b6000610f99601c83610b3f565b9150610fa482610f63565b602082019050919050565b60006020820190508181036000830152610fc881610f8c565b9050919050565b7f4e487b7100000000000000000000000000000000000000000000000000000000600052603260045260246000fd5b7f476c6f62616c20696e646578206973206f7574206f6620626f756e6473000000600082015250565b6000611034601d83610b3f565b915061103f82610ffe565b602082019050919050565b6000602082019050818103600083015261106381611027565b9050919050565b7f6e6f206f776e6572000000000000000000000000000000000000000000000000600082015250565b60006110a0600883610b3f565b91506110ab8261106a565b602082019050919050565b600060208201905081810360008301526110cf81611093565b9050919050565b7f57726f6e67206164647265737300000000000000000000000000000000000000600082015250565b600061110c600d83610b3f565b9150611117826110d6565b602082019050919050565b6000602082019050818103600083015261113b816110ff565b9050919050565b600081905092915050565b600061115882610b34565b6111628185611142565b9350611172818560208601610b50565b80840191505092915050565b600061118a828461114d565b915081905092915050565b7f4572726f73202d207374616d702045786973747320616c726561647900000000600082015250565b60006111cb601c83610b3f565b91506111d682611195565b602082019050919050565b600060208201905081810360008301526111fa816111be565b9050919050565b7f4e487b7100000000000000000000000000000000000000000000000000000000600052601160045260246000fd5b600061123b82610bef565b915061124683610bef565b92508282101561125957611258611201565b5b828203905092915050565b7f455243373231206d696e74696e6720746f203020616464726573730000000000600082015250565b600061129a601b83610b3f565b91506112a582611264565b602082019050919050565b600060208201905081810360008301526112c98161128d565b9050919050565b7f546f6b656e20616c726561647920657869737473000000000000000000000000600082015250565b6000611306601483610b3f565b9150611311826112d0565b602082019050919050565b60006020820190508181036000830152611335816112f9565b9050919050565b600061134782610bef565b915061135283610bef565b9250827fffffffffffffffffffffffffffffffffffffffffffffffffffffffffffffffff0382111561138757611386611201565b5b82820190509291505056fea264697066735822122095fc6b54be2d1cdf0e5ef1fbda9bca2241269da99a96c9badaf20a0c293355a064736f6c634300080d0033",
  "immutableReferences": {},
  "source": "// SPDX-License-Identifier: MIT\npragma solidity ^0.8.0;\nimport \"./ERC721Connector.sol\";\n\ncontract RareStampz is ERC721Connector {\n    string[] public stamps;\n\n    mapping(string => bool) _stampsExistence;\n\n    function mint(string memory _stamp) public {\n        require(!_stampsExistence[_stamp], \"Erros - stamp Exists already\");\n        stamps.push(_stamp);\n        uint256 id = stamps.length - 1;\n        _mint(msg.sender, id);\n    }\n\n    constructor() ERC721Connector(\"RareStampz\", \"RSTAMPZ\") {}\n}\n",
  "sourcePath": "/Users/Jayu/Sites/NFT/nft-marketplace-starter-kit/src/contracts/RareStampz.sol",
  "compiler": {
    "name": "solc",
    "version": "0.8.13+commit.abaa5c0e.Emscripten.clang"
  },
  "schemaVersion": "3.4.5",
  "updatedAt": "2022-03-23T06:38:54.104Z",
  "networkType": "ethereum",
  "devdoc": {
    "kind": "dev",
    "methods": {
      "totalSupply()": {
        "returns": {
          "_0": "A count of valid NFTs tracked by this contract, where each one of  them has an assigned and queryable owner not equal to the zero address"
        }
      }
    },
    "version": 1
  },
  "userdoc": {
    "kind": "user",
    "methods": {
      "totalSupply()": {
        "notice": "Count NFTs tracked by this contract"
      }
    },
    "version": 1
  }
}