{
  "contractName": "RareStampz",
  "abi": [
    {
      "inputs": [],
      "stateMutability": "nonpayable",
      "type": "constructor"
    },
    {
      "anonymous": false,
      "inputs": [
        {
          "indexed": true,
          "internalType": "address",
          "name": "from",
          "type": "address"
        },
        {
          "indexed": true,
          "internalType": "address",
          "name": "to",
          "type": "address"
        },
        {
          "indexed": true,
          "internalType": "uint256",
          "name": "tokenId",
          "type": "uint256"
        }
      ],
      "name": "Transfer",
      "type": "event"
    },
    {
      "inputs": [
        {
          "internalType": "address",
          "name": "_owner",
          "type": "address"
        }
      ],
      "name": "balanceOf",
      "outputs": [
        {
          "internalType": "uint256",
          "name": "",
          "type": "uint256"
        }
      ],
      "stateMutability": "view",
      "type": "function",
      "constant": true
    },
    {
      "inputs": [],
      "name": "name",
      "outputs": [
        {
          "internalType": "string",
          "name": "",
          "type": "string"
        }
      ],
      "stateMutability": "view",
      "type": "function",
      "constant": true
    },
    {
      "inputs": [
        {
          "internalType": "uint256",
          "name": "_tokenId",
          "type": "uint256"
        }
      ],
      "name": "ownerOf",
      "outputs": [
        {
          "internalType": "address",
          "name": "",
          "type": "address"
        }
      ],
      "stateMutability": "view",
      "type": "function",
      "constant": true
    },
    {
      "inputs": [
        {
          "internalType": "uint256",
          "name": "",
          "type": "uint256"
        }
      ],
      "name": "stamps",
      "outputs": [
        {
          "internalType": "string",
          "name": "",
          "type": "string"
        }
      ],
      "stateMutability": "view",
      "type": "function",
      "constant": true
    },
    {
      "inputs": [],
      "name": "symbol",
      "outputs": [
        {
          "internalType": "string",
          "name": "",
          "type": "string"
        }
      ],
      "stateMutability": "view",
      "type": "function",
      "constant": true
    },
    {
      "inputs": [
        {
          "internalType": "uint256",
          "name": "index",
          "type": "uint256"
        }
      ],
      "name": "tokenByIndex",
      "outputs": [
        {
          "internalType": "uint256",
          "name": "",
          "type": "uint256"
        }
      ],
      "stateMutability": "view",
      "type": "function",
      "constant": true
    },
    {
      "inputs": [
        {
          "internalType": "address",
          "name": "owner",
          "type": "address"
        },
        {
          "internalType": "uint256",
          "name": "index",
          "type": "uint256"
        }
      ],
      "name": "tokenOfOwnerByIndex",
      "outputs": [
        {
          "internalType": "uint256",
          "name": "",
          "type": "uint256"
        }
      ],
      "stateMutability": "view",
      "type": "function",
      "constant": true
    },
    {
      "inputs": [],
      "name": "totalSupply",
      "outputs": [
        {
          "internalType": "uint256",
          "name": "",
          "type": "uint256"
        }
      ],
      "stateMutability": "view",
      "type": "function",
      "constant": true
    },
    {
      "inputs": [
        {
          "internalType": "address",
          "name": "_from",
          "type": "address"
        },
        {
          "internalType": "address",
          "name": "_to",
          "type": "address"
        },
        {
          "internalType": "uint256",
          "name": "_tokenId",
          "type": "uint256"
        }
      ],
      "name": "transferFrom",
      "outputs": [],
      "stateMutability": "payable",
      "type": "function",
      "payable": true
    },
    {
      "inputs": [
        {
          "internalType": "string",
          "name": "_stamp",
          "type": "string"
        }
      ],
      "name": "mint",
      "outputs": [],
      "stateMutability": "nonpayable",
      "type": "function"
    }
  ],
  "bytecode": "0x60806040523480156200001157600080fd5b506040518060400160405280600a81526020017f526172655374616d707a000000000000000000000000000000000000000000008152506040518060400160405280600781526020017f525354414d505a000000000000000000000000000000000000000000000000008152508181816000908051906020019062000098929190620000bc565b508060019080519060200190620000b1929190620000bc565b5050505050620001d0565b828054620000ca906200019b565b90600052602060002090601f016020900481019282620000ee57600085556200013a565b82601f106200010957805160ff19168380011785556200013a565b828001600101855582156200013a579182015b82811115620001395782518255916020019190600101906200011c565b5b5090506200014991906200014d565b5090565b5b80821115620001685760008160009055506001016200014e565b5090565b7f4e487b7100000000000000000000000000000000000000000000000000000000600052602260045260246000fd5b60006002820490506001821680620001b457607f821691505b602082108103620001ca57620001c96200016c565b5b50919050565b61188b80620001e06000396000f3fe6080604052600436106100915760003560e01c80636352211e116100595780636352211e1461018257806370a08231146101bf57806395d89b41146101fc578063ccd68f3b14610227578063d85d3d271461026457610091565b806306fdde031461009657806318160ddd146100c157806323b872dd146100ec5780632f745c59146101085780634f6ccce714610145575b600080fd5b3480156100a257600080fd5b506100ab61028d565b6040516100b89190610ef9565b60405180910390f35b3480156100cd57600080fd5b506100d661031f565b6040516100e39190610f34565b60405180910390f35b61010660048036038101906101019190610fed565b61032c565b005b34801561011457600080fd5b5061012f600480360381019061012a9190611040565b61033c565b60405161013c9190610f34565b60405180910390f35b34801561015157600080fd5b5061016c60048036038101906101679190611080565b6103ec565b6040516101799190610f34565b60405180910390f35b34801561018e57600080fd5b506101a960048036038101906101a49190611080565b61045d565b6040516101b691906110bc565b60405180910390f35b3480156101cb57600080fd5b506101e660048036038101906101e191906110d7565b61050e565b6040516101f39190610f34565b60405180910390f35b34801561020857600080fd5b506102116105c5565b60405161021e9190610ef9565b60405180910390f35b34801561023357600080fd5b5061024e60048036038101906102499190611080565b610657565b60405161025b9190610ef9565b60405180910390f35b34801561027057600080fd5b5061028b60048036038101906102869190611239565b610703565b005b60606000805461029c906112b1565b80601f01602080910402602001604051908101604052809291908181526020018280546102c8906112b1565b80156103155780601f106102ea57610100808354040283529160200191610315565b820191906000526020600020905b8154815290600101906020018083116102f857829003601f168201915b5050505050905090565b6000600580549050905090565b6103378383836107cf565b505050565b60006103478361050e565b8210610388576040517f08c379a000000000000000000000000000000000000000000000000000000000815260040161037f9061132e565b60405180910390fd5b600760008473ffffffffffffffffffffffffffffffffffffffff1673ffffffffffffffffffffffffffffffffffffffff16815260200190815260200160002082815481106103d9576103d861134e565b5b9060005260206000200154905092915050565b60006103f661031f565b8210610437576040517f08c379a000000000000000000000000000000000000000000000000000000000815260040161042e906113c9565b60405180910390fd5b6005828154811061044b5761044a61134e565b5b90600052602060002001549050919050565b6000806002600084815260200190815260200160002060009054906101000a900473ffffffffffffffffffffffffffffffffffffffff169050600073ffffffffffffffffffffffffffffffffffffffff168173ffffffffffffffffffffffffffffffffffffffff1603610505576040517f08c379a00000000000000000000000000000000000000000000000000000000081526004016104fc90611435565b60405180910390fd5b80915050919050565b60008073ffffffffffffffffffffffffffffffffffffffff168273ffffffffffffffffffffffffffffffffffffffff160361057e576040517f08c379a0000000000000000000000000000000000000000000000000000000008152600401610575906114a1565b60405180910390fd5b600360008373ffffffffffffffffffffffffffffffffffffffff1673ffffffffffffffffffffffffffffffffffffffff168152602001908152602001600020549050919050565b6060600180546105d4906112b1565b80601f0160208091040260200160405190810160405280929190818152602001828054610600906112b1565b801561064d5780601f106106225761010080835404028352916020019161064d565b820191906000526020600020905b81548152906001019060200180831161063057829003601f168201915b5050505050905090565b6009818154811061066757600080fd5b906000526020600020016000915090508054610682906112b1565b80601f01602080910402602001604051908101604052809291908181526020018280546106ae906112b1565b80156106fb5780601f106106d0576101008083540402835291602001916106fb565b820191906000526020600020905b8154815290600101906020018083116106de57829003601f168201915b505050505081565b600a8160405161071391906114fd565b908152602001604051809103902060009054906101000a900460ff161561076f576040517f08c379a000000000000000000000000000000000000000000000000000000000815260040161076690611560565b60405180910390fd5b6009819080600181540180825580915050600190039060005260206000200160009091909190915090805190602001906107aa929190610dbd565b50600060016009805490506107bf91906115af565b90506107cb3382610a5c565b5050565b600073ffffffffffffffffffffffffffffffffffffffff168273ffffffffffffffffffffffffffffffffffffffff160361083e576040517f08c379a00000000000000000000000000000000000000000000000000000000081526004016108359061162f565b60405180910390fd5b6108478161045d565b73ffffffffffffffffffffffffffffffffffffffff168373ffffffffffffffffffffffffffffffffffffffff16146108b4576040517f08c379a00000000000000000000000000000000000000000000000000000000081526004016108ab9061169b565b60405180910390fd5b6108bd81610a7d565b6108fc576040517f08c379a00000000000000000000000000000000000000000000000000000000081526004016108f390611707565b60405180910390fd5b816002600083815260200190815260200160002060006101000a81548173ffffffffffffffffffffffffffffffffffffffff021916908373ffffffffffffffffffffffffffffffffffffffff1602179055506001600360008473ffffffffffffffffffffffffffffffffffffffff1673ffffffffffffffffffffffffffffffffffffffff168152602001908152602001600020600082825461099e9190611727565b925050819055506001600360008573ffffffffffffffffffffffffffffffffffffffff1673ffffffffffffffffffffffffffffffffffffffff16815260200190815260200160002060008282546109f591906115af565b92505081905550808273ffffffffffffffffffffffffffffffffffffffff168473ffffffffffffffffffffffffffffffffffffffff167fddf252ad1be2c89b69c2b068fc378daa952ba7f163c4a11628f55a4df523b3ef60405160405180910390a4505050565b610a668282610aef565b610a6f81610cb0565b610a798282610cf9565b5050565b6000806002600084815260200190815260200160002060009054906101000a900473ffffffffffffffffffffffffffffffffffffffff169050600073ffffffffffffffffffffffffffffffffffffffff168173ffffffffffffffffffffffffffffffffffffffff161415915050919050565b600073ffffffffffffffffffffffffffffffffffffffff168273ffffffffffffffffffffffffffffffffffffffff1603610b5e576040517f08c379a0000000000000000000000000000000000000000000000000000000008152600401610b55906117c9565b60405180910390fd5b610b6781610a7d565b15610ba7576040517f08c379a0000000000000000000000000000000000000000000000000000000008152600401610b9e90611835565b60405180910390fd5b816002600083815260200190815260200160002060006101000a81548173ffffffffffffffffffffffffffffffffffffffff021916908373ffffffffffffffffffffffffffffffffffffffff1602179055506001600360008473ffffffffffffffffffffffffffffffffffffffff1673ffffffffffffffffffffffffffffffffffffffff1681526020019081526020016000206000828254610c499190611727565b92505081905550808273ffffffffffffffffffffffffffffffffffffffff16600073ffffffffffffffffffffffffffffffffffffffff167fddf252ad1be2c89b69c2b068fc378daa952ba7f163c4a11628f55a4df523b3ef60405160405180910390a45050565b6005805490506006600083815260200190815260200160002081905550600581908060018154018082558091505060019003906000526020600020016000909190919091505550565b600760008373ffffffffffffffffffffffffffffffffffffffff1673ffffffffffffffffffffffffffffffffffffffff168152602001908152602001600020805490506008600083815260200190815260200160002081905550600760008373ffffffffffffffffffffffffffffffffffffffff1673ffffffffffffffffffffffffffffffffffffffff1681526020019081526020016000208190806001815401808255809150506001900390600052602060002001600090919091909150555050565b828054610dc9906112b1565b90600052602060002090601f016020900481019282610deb5760008555610e32565b82601f10610e0457805160ff1916838001178555610e32565b82800160010185558215610e32579182015b82811115610e31578251825591602001919060010190610e16565b5b509050610e3f9190610e43565b5090565b5b80821115610e5c576000816000905550600101610e44565b5090565b600081519050919050565b600082825260208201905092915050565b60005b83811015610e9a578082015181840152602081019050610e7f565b83811115610ea9576000848401525b50505050565b6000601f19601f8301169050919050565b6000610ecb82610e60565b610ed58185610e6b565b9350610ee5818560208601610e7c565b610eee81610eaf565b840191505092915050565b60006020820190508181036000830152610f138184610ec0565b905092915050565b6000819050919050565b610f2e81610f1b565b82525050565b6000602082019050610f496000830184610f25565b92915050565b6000604051905090565b600080fd5b600080fd5b600073ffffffffffffffffffffffffffffffffffffffff82169050919050565b6000610f8e82610f63565b9050919050565b610f9e81610f83565b8114610fa957600080fd5b50565b600081359050610fbb81610f95565b92915050565b610fca81610f1b565b8114610fd557600080fd5b50565b600081359050610fe781610fc1565b92915050565b60008060006060848603121561100657611005610f59565b5b600061101486828701610fac565b935050602061102586828701610fac565b925050604061103686828701610fd8565b9150509250925092565b6000806040838503121561105757611056610f59565b5b600061106585828601610fac565b925050602061107685828601610fd8565b9150509250929050565b60006020828403121561109657611095610f59565b5b60006110a484828501610fd8565b91505092915050565b6110b681610f83565b82525050565b60006020820190506110d160008301846110ad565b92915050565b6000602082840312156110ed576110ec610f59565b5b60006110fb84828501610fac565b91505092915050565b600080fd5b600080fd5b7f4e487b7100000000000000000000000000000000000000000000000000000000600052604160045260246000fd5b61114682610eaf565b810181811067ffffffffffffffff821117156111655761116461110e565b5b80604052505050565b6000611178610f4f565b9050611184828261113d565b919050565b600067ffffffffffffffff8211156111a4576111a361110e565b5b6111ad82610eaf565b9050602081019050919050565b82818337600083830152505050565b60006111dc6111d784611189565b61116e565b9050828152602081018484840111156111f8576111f7611109565b5b6112038482856111ba565b509392505050565b600082601f8301126112205761121f611104565b5b81356112308482602086016111c9565b91505092915050565b60006020828403121561124f5761124e610f59565b5b600082013567ffffffffffffffff81111561126d5761126c610f5e565b5b6112798482850161120b565b91505092915050565b7f4e487b7100000000000000000000000000000000000000000000000000000000600052602260045260246000fd5b600060028204905060018216806112c957607f821691505b6020821081036112dc576112db611282565b5b50919050565b7f4f776e657220696e646578206973206f7574206f6620626f756e647300000000600082015250565b6000611318601c83610e6b565b9150611323826112e2565b602082019050919050565b600060208201905081810360008301526113478161130b565b9050919050565b7f4e487b7100000000000000000000000000000000000000000000000000000000600052603260045260246000fd5b7f476c6f62616c20696e646578206973206f7574206f6620626f756e6473000000600082015250565b60006113b3601d83610e6b565b91506113be8261137d565b602082019050919050565b600060208201905081810360008301526113e2816113a6565b9050919050565b7f6e6f206f776e6572000000000000000000000000000000000000000000000000600082015250565b600061141f600883610e6b565b915061142a826113e9565b602082019050919050565b6000602082019050818103600083015261144e81611412565b9050919050565b7f57726f6e67206164647265737300000000000000000000000000000000000000600082015250565b600061148b600d83610e6b565b915061149682611455565b602082019050919050565b600060208201905081810360008301526114ba8161147e565b9050919050565b600081905092915050565b60006114d782610e60565b6114e181856114c1565b93506114f1818560208601610e7c565b80840191505092915050565b600061150982846114cc565b915081905092915050565b7f4572726f73202d207374616d702045786973747320616c726561647900000000600082015250565b600061154a601c83610e6b565b915061155582611514565b602082019050919050565b600060208201905081810360008301526115798161153d565b9050919050565b7f4e487b7100000000000000000000000000000000000000000000000000000000600052601160045260246000fd5b60006115ba82610f1b565b91506115c583610f1b565b9250828210156115d8576115d7611580565b5b828203905092915050565b7f4572726f723a20496e76616c696420546f206164647265737300000000000000600082015250565b6000611619601983610e6b565b9150611624826115e3565b602082019050919050565b600060208201905081810360008301526116488161160c565b9050919050565b7f4572726f723a20596f7520646f776e206f776e2074686520546f6b656e000000600082015250565b6000611685601d83610e6b565b91506116908261164f565b602082019050919050565b600060208201905081810360008301526116b481611678565b9050919050565b7f4572726f723a20546f6b656e20446f65736e7420657869737473000000000000600082015250565b60006116f1601a83610e6b565b91506116fc826116bb565b602082019050919050565b60006020820190508181036000830152611720816116e4565b9050919050565b600061173282610f1b565b915061173d83610f1b565b9250827fffffffffffffffffffffffffffffffffffffffffffffffffffffffffffffffff0382111561177257611771611580565b5b828201905092915050565b7f455243373231206d696e74696e6720746f203020616464726573730000000000600082015250565b60006117b3601b83610e6b565b91506117be8261177d565b602082019050919050565b600060208201905081810360008301526117e2816117a6565b9050919050565b7f546f6b656e20616c726561647920657869737473000000000000000000000000600082015250565b600061181f601483610e6b565b915061182a826117e9565b602082019050919050565b6000602082019050818103600083015261184e81611812565b905091905056fea26469706673582212207b74b23c434aeff775cba2fd8dac6025661e536360675761c59b4191a9ab8e8864736f6c634300080d0033",
  "immutableReferences": {},
  "source": "// SPDX-License-Identifier: MIT\npragma solidity ^0.8.0;\nimport \"./ERC721Connector.sol\";\n\ncontract RareStampz is ERC721Connector {\n    string[] public stamps;\n\n    mapping(string => bool) _stampsExistence;\n\n    function mint(string memory _stamp) public {\n        require(!_stampsExistence[_stamp], \"Erros - stamp Exists already\");\n        stamps.push(_stamp);\n        uint256 id = stamps.length - 1;\n        _mint(msg.sender, id);\n    }\n\n    constructor() ERC721Connector(\"RareStampz\", \"RSTAMPZ\") {}\n}\n",
  "sourcePath": "/Users/Jayu/Sites/NFT/nft-marketplace-starter-kit/src/contracts/RareStampz.sol",
  "compiler": {
    "name": "solc",
    "version": "0.8.13+commit.abaa5c0e.Emscripten.clang"
  },
  "schemaVersion": "3.4.5",
  "updatedAt": "2022-03-23T07:24:11.856Z",
  "networkType": "ethereum",
  "devdoc": {
    "kind": "dev",
    "methods": {
      "totalSupply()": {
        "returns": {
          "_0": "A count of valid NFTs tracked by this contract, where each one of  them has an assigned and queryable owner not equal to the zero address"
        }
      }
    },
    "version": 1
  },
  "userdoc": {
    "kind": "user",
    "methods": {
      "totalSupply()": {
        "notice": "Count NFTs tracked by this contract"
      }
    },
    "version": 1
  }
}